:020000040000FA
:06000000020D900203B5A1
:03002B00020B04C1
:030033000209C6F9
:030053000202E4C2
:10008300020346010100F0FF0700080000FFFF0024
:10009300000504000000030001FFFFFFFF00143010
:1000A3007500000020FD000206FFFF1E0F00320056
:1000B3000E16000000000000000000000000000019
:1000C300780000000A000000320001010104010C65
:1000D300000204128102F1810104000014130000E4
:1000E30000E8030000FFFF651388130000E8030026
:1000F3000064006400B801A0BB0D00A0BB0D0002AA
:100103000202070401071E02051E020A0A01010872
:10011300080103B80B02803E0102FEFFE8030A0553
:100123000001FFFF020A011401E0050301010F03AF
:1001330000030003000300030003000300030003A4
:100143000005000A00140028004F009E0000003B39
:100153002700000000D32600000000FF000000FF7E
:100163000000120DA0604F120DAF6012E7548066BD
:10017300F6120C7C7011120E3D703B090909F4F65E
:1001830018F618F618F622120C407015120E4608CF
:10019300080860EAE6447FF618768018E4F618F655
:1001A30022120E466016120E3D7012E4F608F6088F
:1001B300F608E65480F609090918181822EAC0E07F
:1001C300EBC0E0ECC0E0EDC0E0E687F0A4FBACF0F0
:1001D30008E687F0A42CFCE435F0FA1809E687F06A
:1001E300A42C4B60027401CA35F0FCE433FB09E62E
:1001F30087F0D2F7A42CCB35F0FC1908E687F0A4DE
:100203002BCC35F0FBE433FD0819E687F0D2E7A4E5
:100213002C4ACB35F0CD3400FC09E687F0D2E7A4B5
:100223002DCC35F0FDE433FA0918E687F0D2F7A4B4
:100233002CCD35F0CA3400FC08E687F0D2E7D2F7BC
:10024300A42ACC35F07A7E20E70B0ACB33CBCD330F
:10025300CDCC33CC33CB3350147004ED30E00ED21D
:10026300F1E4CD3DCDCC3CCC3B5005DA05C2F1EBFE
:10027300547FC63308E63392F0FBE73309E733C311
:100283009A502D2B70190C0D4C4D70151806E6085D
:10029300C333700D20F10AA2F013F6E418800B406B
:1002A30024E4F630F002768018F618F618F6802467
:1002B300D33B14501074FFA2F013F6187680E418A1
:1002C300F618F6800FA2F013F618E63303F618ECCF
:1002D300F618EDF6D0E0FDD0E0FCD0E0FBD0E0FA7C
:1002E30022C0E074F1120746A2AFE433F509D2AF9E
:1002F30085A708AFA1EF5508FE74105E60061210C3
:100303006E75A1EF74085E600812107475A1F78012
:1003130024EFA2E092F0E508A2E082F0501790618A
:1003230098E0F890057EE0C398A2D265D0335002DE
:10033300E8F075A1FE752300E509A2E092AF7F0204
:100343000207A5C0E074F2120746A2AFE433FED25F
:10035300AF9061A4E0F8759B00E5915854086008DC
:100363007591F71210C28023E591585410600875F7
:1003730091EF1210C88014E591A2E092F0E8A2E098
:1003830082F05007E0C2E0F012122A9061A3E0F875
:10039300E5E9585404600E12120075E9FB9061936D
:1003A300E0A2E640F2752300EEA2E092AF7F0102E5
:1003B30007A5C0E074F2120746A2AFE433FED2AF42
:1003C3009061A5E0F8E5BF585404600675BFFB12C1
:1003D300124280D1C3E498F8E499F91204188026F4
:1003E300C3E49AFAE49BFBE920E7E9120418E498D2
:1003F300F8E499F922C3E498F8E499F9120418E4AB
:1004030098F8E499F9C3E49AFAE49BFB22EB20E71A
:10041300CFE920E7E0B90010BB0008E88AF084F8D0
:10042300AAF022E4FBC8FA22EB70227B10C833C87F
:10043300C933C9335007C39AC3DBF280069A50010C
:100443002ADBEAC833F4C8C933F4C9FA2275F008C1
:10045300E4C833C8C933C933C99AC99B5004C92AEC
:10046300C93BD5F0ECFBC833F4C8E4C9FA22120443
:10047300BC30F03912050180341204BC20F0143072
:10048300E72B74FFFCFBFA747F8022E4FCFBFA7415
:1004930080801AB48008BC00F2BB00EF800F50EBE1
:1004A300F9E4C39AFAE49BFBE49CFCE499C6CC18F8
:1004B300C6CB18C6CA18C6F922E4C9C608CAC608F4
:1004C300CBC6D3330308CCC63392F0C3947F402EFC
:1004D30094184019C9B90704CACBCC225025C309C3
:1004E300CA33CACB33CBCC33CC33D9F422F4600D2B
:1004F300C9CCC313CB13CBCA13CAD9F6CC22E4FCA1
:10050300FBFA2214FCFBFA22080808EAC0E0EBC05D
:10051300E086F0E7A4FA180986F0E7A42AFA180996
:1005230086F0E7A42AFA180986F0E7A42AFA1986BE
:10053300F0E7A4FBE5F02AFA190886F0E7A42BFB01
:10054300E5F03AFA190886F0E7A42BFBE5F03AFA4E
:1005530018180986F0E7A4C5F02BFBE43AFA19084A
:10056300E7C5F0C6A426F6E5F03BFBE43AFA1886A5
:10057300F0E7A4F6E5F00826F6E43B08F6E43A08CB
:10058300F6D0E0FBD0E0FA22080808E630E71112C3
:100593000C681205A3080808C64480C61818182258
:1005A300181818E9799EC608CAC608CBC608CCC66F
:1005B300C370207996CACBCC7019798ECBCC7013CB
:1005C3007986CC700EF9802ACA33CACB33CBCC33AD
:1005D300CC331930E7F2CCCBCA3350147004EA3071
:1005E300E00DE4CA3ACACB3BCBCC3CCC500209C3A6
:1005F300E913C6CC182313C6CB18C6CA18C6F922EA
:10060300E4CFC0E0E4CEC0E0E4CDC0E0E4CCC0E0A1
:1006130075F020E626F608E633F608E633F608E634
:1006230033F6181818EC33FCED33FDEE33FEEF33DD
:10063300FFC3EC9709ED9709EE9709EF971919197D
:10064300400FFFEC97FC09ED97FD09EE97FE191992
:1006530006D5F0BFECF709EDF709EEF709EFF71947
:100663001919D0E0FCD0E0FDD0E0FED0E0FF222558
:1006730021C582C0E0E52234FFC583C0E0E521C384
:10068300958224F810AF088583228582218008850E
:100693008322858221D2AFCEF0A3E520F0A3780890
:1006A300E608F0A3DEFAEFF0A3E58124FAF8E60802
:1006B300F0A3E608F0A3E608F0A30808E608F0A311
:1006C300E608F0A315811581D0E0FED0E0F815818E
:1006D30015811581E8C0E0EEC0E022120E28B900B2
:1006E30003020730E4900501780179128002F0A338
:1006F300D8FCD9FA78239000867A01BA00028007E1
:10070300E493A3F608DAF97A017B1690008778DE82
:1007130079018015E493A3AD82AE838A828B83F043
:10072300A3AA82AB838D828E83D8E9D9E77582B47D
:100733007583AF7404120AE67582307583247400DE
:10074300120AE6C0D02521C582C0E0E52234FFC5E8
:1007530083C0E0E521C3958224F310AF088583228B
:100763008582218008858322858221D2AFC8F0A3A8
:10077300E9F0A3EAF0A3EBF0A37908E709F0A3D823
:10078300FAECF0A3EDF0A3EEF0A3EFF0A3D0E0F0CA
:10079300A3D0E0F0A3D0E0F0A3E520F0A3E5F0F0D0
:1007A300A322852283852182E0C0E0A3E0F9A3E0B0
:1007B300FAA3E0FBA37808E0F608A3DFFAE0FCA3C2
:1007C300E0FDA3E0FEA3E0FFA3E0C0E0A3E0C0E000
:1007D300A3E0F5D0A3E0F520A3E0A3F5F010AF0864
:1007E3008583228582218008858322858221D2AF59
:1007F300D082D083D0E0F8D0E032E4731075F010EB
:100803008E248F25858229858328852182852283CD
:10081300E0CEA3E0CF852982852883EBC9EAC8ED22
:10082300CBECCAC3E833C8E933C9EA33CAEB33CBE9
:10083300C3EA9EF527EB9FF526B35004AB26AA2700
:10084300EC33CCED33CDD5F0DAAE24AF2522D08313
:10085300D082ECC0E0EDC0E0E493A3FCE493A3FDFD
:10086300ED4C600D120929EC24FFFCED34FFFD80F3
:10087300EFE493A3FCE493A3FDED4C600D1209F1A7
:10088300EC24FFFCED34FFFD80EFD0E0FDD0E0FC75
:10089300E493A3C0E0E493C0E02285228385218210
:1008A300E0A3FEE0A3F5207808E0A3F608DFFAE072
:1008B300A3FFE0A3C0E0E0A3C0E0E0A3C0E0E0A3A7
:1008C300C0E0E0A3C0E010AF0885822185832280C9
:1008D30008858221858322D2AFD083D082020AEC9D
:1008E300D083D082E9C0E0E493A3C386F0C5F0953A
:1008F300F0F908E493A386F0C5F095F0700BE49348
:10090300A3C3994005E9048002A3E475F002A4257A
:1009130082F582E5F03583F583D0E0F9E493A3C053
:10092300E0E493C0E022C0E0C3E49396087401932B
:100933009618400FE4936670080874019366187064
:10094300007019A3A3C3E49396087401939618A3A4
:10095300A3400DD0E0D0E0D0E002088DA3A3A3A371
:10096300A3A3D0E0227404800474028000CCC0E00E
:10097300EDC0E0E521C39CCCAD2250011D10AF06B4
:100983008C218D2280068C218D22D2AF120A68D051
:10099300E0FDD0E0FC2274028000CCC0E0EDC0E0BA
:1009A300E521C39CCCAD2250011D10AF068C218DD7
:1009B3002280068C218D22D2AF120A46D0E0FDD0D0
:1009C300E0FC22C0E074F2120746A2AFE433FED289
:1009D300AFE58BA2E050057904120FC6758B00C2F8
:1009E300E8752300EEA2E092AF7F010207A5C0E005
:1009F300C0F088F0E4936670080874019366187079
:100A030000A8F0A3A3700BD0F0D0E0D0E0D0E002B8
:100A1300088DA3A3D0F0D0E022D083D082CCC0E055
:100A2300E493A36006120AC71470FAE493A3600662
:100A3300120BEB1470FAD0E0FCE493A3C0E0E49350
:100A4300C0E022CAC0E0E493A3C582CCC582C583BB
:100A5300CDC583F0A3C582CCC582C583CDC583DA5A
:100A6300E5D0E0CA22CAC0E0E0A3C582CCC582C5F6
:100A730083CDC583F0A3C582CCC582C583CDC58391
:100A8300DAE6D0E0CA22C008C3E096F50808A3E07E
:100A930096420808A3E096420808A3E0964508702A
:100AA30001D3D00822700908080822601618181804
:100AB300C6C333C608C633C608C633C608C633C65C
:100AC300D5E0EA22C0E0E493A3D39C5010E493A3BF
:100AD300C39C400AD0E0D0E0D0E0020A39A3A3A32C
:100AE300D0E022C09FF59FE473D09F22D083D082B1
:100AF300C09FE493C0E0740193C0E0740293F59F38
:100B030022C0E0C0D0E8C0E0A8A8D2AFC2C7752316
:100B130000E8A2E792AFD0E0F8D0D0D0E0322521B0
:100B2300F58210AF08F521400C15228008F521400D
:100B3300021522D2AF8522832200C0D0252110AF17
:100B430008F521500C05228008F52150020522D218
:100B5300AFD0D0227404800A74038006740280022A
:100B63007401C0E0F404120B21D0E0120DEB22BBA0
:100B73000102E722C082C08389828A83BB0003E02B
:100B83008002E493D083D082226016080808C6C38B
:100B930013C618C613C618C613C618C613C6D5E09F
:100BA300EA222521F8E43522F9222521FAE4352227
:100BB300FB222521FCE43522FD22C3E0C696F6087C
:100BC300A3E0C696F608A3E0C696F608A3E0C69689
:100BD300F622252110AF08F521400C15228008F5D7
:100BE3002140021522D2AF22C0E0E493A36C700926
:100BF300D0E0D0E0D0E0020A39A3A3D0E022E0663F
:100C0300701008A3E066700A08A3E066700408A3E6
:100C1300E06622C3E09608A3E09608A3E09608A343
:100C2300E096A2D265D03322E76670100809E76622
:100C3300700A0809E76670040809E766221919199A
:100C4300E70947097009E727097005E733F4220923
:100C530022C3E096F008A3E096F008A3E096F0081C
:100C6300A3E096F022181818E4C396F608E496F663
:100C730008E496F608E496F622181818E6084608DB
:100C83007009E626087005E633F4220822C3E493CC
:100C930096087401939608740293960874039396C6
:100CA30022C3E697F60809E697F60809E697F608D9
:100CB30009E697F622E026F608A3E036F608A3E055
:100CC30036F608A3E036F622700422600D18C6C378
:100CD30033C608C633C6D5E0F41822E657F608092A
:100CE300E657F60809E657F60809E657F622E056EE
:100CF300F608A3E056F608A3E056F608A3E056F676
:100D030022E627F60809E637F60809E637F6080962
:100D1300E637F622E026F008A3E036F008A3E03633
:100D2300F008A3E036F022E056F008A3E056F008FE
:100D3300A3E056F008A3E056F022E647F60809E6DA
:100D430047F60809E647F60809E647F622600D0864
:100D5300C6A2E713C618C613C6D5E0F322C6F4C667
:100D630008C6F4C608C6F4C608C6F4C622C3E79686
:100D73000809E7960809E7960809E79622C3E0966B
:100D830008A3E09608A3E09608A3E0962275D00096
:100D930075813F752101752205000206DEE60846CE
:100DA30008C3134608336002E633F422E709470910
:100DB300C3134709336002E733F422600C08C6C348
:100DC30013C618C613C6D5E0F422E6F008A3E6F06E
:100DD30008A3E6F008A3E6F022E0F608A3E0F6088D
:100DE300A3E0F608A3E0F622CAC0E0E6F0A308DA1F
:100DF300FAD0E0FA22E0FAA3E0FBA3E0FCA3E0FDD3
:100E030022EAF0A3EBF0A3ECF0A3EDF022E0F8A3C9
:100E1300E0F9A3E0FAA3E0FB22E8F0A3E9F0A3EAF8
:100E2300F0A3EBF022E5C754F84401F5C77901229A
:100E33002521F582E43522F58322E727194719474F
:100E4300194722E62618461846184622C2AF75D619
:100E53009F02000022120AEFF6C103120AEF72C2C8
:100E630003120AEFA5C203120AEFD3C203120AEF59
:100E730011C303120AEF38C503120AEF54C5031254
:100E83000AEF99C503120AEF1EC603120AEF6AC6D8
:100E930003120AEFFCC603120AEFD5C703120AEFC7
:100EA30031C803120AEF8FC803120AEF02C90312F3
:100EB3000AEF46C903120AEF9EC903120AEFC0C91B
:100EC30003120AEF50CA03120AEFE1CA03120AEF30
:100ED3002DCB03120AEF59CB03120AEF9ACB03125D
:100EE3000AEF39CD03120AEF1BCE03120AEFF0CE3D
:100EF30003120AEF97A604120AEFC0A604120AEF20
:100F0300DBA604120AEF00A704120AEFA1A704123A
:100F13000AEFBCA704120AEF9AA804120AEFC4A8A6
:100F230004120AEFF9FF03120AEF0D7E00120AEF13
:100F33002A7E00120AEF797E00120AEFC97E0012A0
:100F43000AEF047F00120AEF0A7F00120AEFB1B121
:100F530004120AEF0BB204120AEFF0B204120AEF02
:100F6300CEBD04120AEFDFBD04120AEF7DBE0412E8
:100F73000AEF88BE04120AEFA2BE04120AEF96C259
:100F830004120AEFE6FF02120AEFB1BE04120AEFDF
:100F9300C1BE04120AEFD3BE04120AEF85BF0412C6
:100FA3000AEFDBBA04120AEF5FBB04120AEFC7BBF6
:100FB30004120AEFE0BC04120AEF2DBD04120AEF7B
:100FC30036BD04120AEF5DBD04120AEFA5BD04127B
:100FD3000AEFBCBD04120AEFF9FF02120AEFFCFF8D
:100FE30002120AEFF87F00120AEFA7AD04120AEF0C
:100FF300DFAD04120AEF2DAF04120AEFB1AF0412F2
:101003000AEF13FA03120AEF3FFA03120AEFA9FCDD
:1010130003120AEFE9FC03120AEF25FD03120AEF9C
:1010230039FD03120AEF52FD03120AEF44FE0312C5
:101033000AEFF7FE03120AEF0BFF03120AEF41B3A5
:1010430004120AEF65B304120AEF7EB304120AEF27
:10105300BCB304120AEFECB304120AEF19B404127E
:101063000AEF23B404120AEF89B404120AEF8CB412
:1010730004120AEF96B404120AEFA3B404120AEF9F
:10108300F0A304120AEF10A404120AEF4FA40412EF
:101093000AEF6DA404120AEF88A404120AEFEEA467
:1010A30004120AEFFAA404120AEF57A504120AEF76
:1010B30066A504120AEF8AA504120AEF4BA60412CE
:1010C3000AEF58A604120AEF69A604120AEFCEC06B
:1010D30004120AEF16C104120AEF42C104120AEF06
:1010E300DC8904120AEF308B04120AEF3E8B0412E0
:1010F3000AEF518B04120AEF668B04120AEF7B8B03
:1011030004120AEF8E8B04120AEF0A8C04120AEF00
:101113006F8C04120AEFF78C04120AEF6F8D04121E
:101123000AEF488E04120AEF588E04120AEF678EF4
:1011330004120AEF35C004120AEF59C004120AEF71
:1011430081C004120AEFA9C004120AEF14A9041201
:101153000AEF3BA904120AEF59A904120AEFC8A91E
:1011630004120AEFED9D04120AEF069E04120AEF21
:10117300129E04120AEF269E04120AEF449E0412E2
:101183000AEF4E9E04120AEF589E04120AEF6B9E5A
:1011930004120AEFF59E04120AEF6A9F04120AEF83
:1011A3009E9F04120AEFEC9F04120AEF39A0041267
:1011B3000AEF54A004120AEF5EA004120AEF84A0FF
:1011C30004120AEFE9A004120AEF1FFF03120AEF49
:1011D30041FF03120AEFCFFF03120AEFE5FF0112EB
:1011E3000AEF008004120AEF2C8004120AEF4980F0
:1011F30004120AEF5C8004120AEF778004120AEFEC
:10120300D18004120AEFFF8004120AEF138504123F
:101213000AEF718604120AEFA38604120AEF068707
:1012230004120AEF8B8804120AEFB38804120AEF40
:10123300C88804120AEFD88804120AEF1889041226
:101243000AEF5A8904120AEF6A8904120AEFA5B851
:1012530004120AEFBFB804120AEFE7B804120AEF48
:1012630000B904120AEF24B904120AEF42B90412B6
:101273000AEF59B904120AEF87B904120AEFA2B9A7
:1012830004120AEF34FF02120AEF78FF02120AEF88
:101293005CFC01120AEF6CFC01120AEF71FD0112F2
:1012A3000AEFA3FD01120AEFD3FD01120AEFF6FDC7
:1012B30001120AEF0DFE01120AEF47FE01120AEFB7
:1012C300ACFE01120AEFEEFE01120AEF35FF011226
:1012D3000AEF62FF01120AEF8DFF01120AEF0FB648
:1012E30004120AEF21B604120AEF35B704120AEF0B
:1012F30038B704120AEFD5B904120AEF0BBA041275
:101303000AEF23BA04120AEF65BA04120AEF75BA98
:1013130004120AEFB9BA04120AEFC3BA04120AEFAD
:10132300167700120AEF597700120AEFBE77001200
:101333000AEFDD7700120AEF7F7800120AEF887850
:1013430000120AEFD97800120AEF027900120AEFAD
:101353000F7900120AEF817900120AEF0F7A001257
:101363000AEF547A00120AEF8D7A00120AEFF27A2A
:1013730000120AEF1B7B00120AEF927B00120AEFA6
:10138300E17B00120AEF1E7C00120AEF537C00126D
:101393000AEF657C00120AEF777C00120AEF967C55
:1013A30000120AEF9F7C00120AEF607D00120AEF21
:1013B300A37D00120AEFE17D00120AEFBAC1041205
:1013C3000AEF65B704120AEF69AB04120AEF9FAB89
:1013D30004120AEFE7AB04120AEF40AD04120AEF5E
:1013E300DBAD03120AEF01AF03120AEF3DAF0312A5
:1013F3000AEFFBB003120AEF29B103120AEF93B30A
:1014030003120AEFD3B303120AEF75B503120AEFFF
:101413000BB603120AEF65B603120AEFF5B6031211
:101423000AEF39B703120AEF7BB703120AEFE0B8EA
:1014330003120AEF60BA03120AEFA1BC03120AEF08
:10144300CFBC03120AEFFBBC03120AEF04BD031265
:101453000AEF61BD03120AEFFABD03120AEF11C1CD
:1014630003120AEF97C103120AEF8BBF04120AEFAC
:10147300A3BF04120AEFADBF04120AEF03C00412A4
:101483000AEF129304120AEF289304120AEFC99386
:1014930004120AEF089404120AEF259404120AEFC7
:1014A300569404120AEFA39404120AEFD794041279
:1014B3000AEF129504120AEF0F9704120AEF7597B9
:1014C30004120AEFE0BB04120AEF3FBC04120AEF56
:1014D3007DBC04120AEFBEBC04120AEF12C204124E
:1014E3000AEF008002120AEF0C8002120AEF6E80EC
:1014F30002120AEF788002120AEF078102120AEF42
:10150300438102120AEF028202120AEF5F82021281
:101513000AEFF18202120AEF448302120AEFC28336
:1015230002120AEF7E8502120AEF838702120AEF84
:10153300B88802120AEFFB8902120AEFA08A02128C
:101543000AEF4E8F02120AEF439002120AEFD9906C
:1015530002120AEFFE9002120AEF9B9102120AEFA7
:10156300B89102120AEFD89102120AEF46920212C0
:101573000AEF639202120AEF919202120AEF2F947A
:1015830002120AEF509402120AEFF69402120AEFC3
:101593003E9502120AEF9C9502120AEF3F96021241
:1015A3000AEFA49602120AEF039702120AEFB19709
:1015B30002120AEF2E9802120AEF6A9802120AEF39
:1015C300DE9802120AEF239A02120AEFAF9B02126D
:1015D3000AEF4E9C02120AEF8E9E02120AEFF09E51
:1015E30002120AEF1E9F02120AEF33A102120AEF40
:1015F300D3A302120AEFECA402120AEFF6EF0312CE
:101603000AEF45F103120AEF11F403120AEFDBF4B8
:1016130003120AEFE9F403120AEF08F503120AEFC3
:1016230038F503120AEF09F603120AEFEFF6031275
:101633000AEF0CF703120AEF2CF703120AEF4AF72B
:1016430003120AEFB6F703120AEF20F803120AEFA8
:1016530020F903120AEF829704120AEF4198041249
:101663000AEFA79804120AEF569904120AEF03EA45
:1016730002120AEF32EA02120AEFAAEA02120AEF90
:10168300B9EB02120AEF15EC02120AEF82ED021215
:101693000AEF9EED02120AEFF0ED02120AEF33EEAB
:1016A30002120AEF46EE02120AEF9EEE02120AEF50
:1016B30060EF02120AEFDCEF02120AEF13F00212DC
:1016C3000AEF4BF002120AEFDDF102120AEFBCF24D
:1016D30002120AEF0AF402120AEFEDF402120AEF01
:1016E30079F502120AEFB9F502120AEFD8F50212E0
:1016F3000AEF23F602120AEF43F602120AEFDCF6B0
:1017030002120AEF62F702120AEFBDF702120AEFA2
:10171300FDF702120AEF93FA02120AEFACFB021270
:101723000AEFF2FB02120AEFE7FC02120AEF0FFDC7
:1017330002120AEF12FD02120AEF1CFD02120AEF57
:1017430038FD02120AEFB2FD02120AEFEBFD02129C
:101753000AEF17FE02120AEF3EFE02120AEF62FEC2
:1017630002120AEFD3FE02120AEFE6FE02120AEF9A
:1017730015FF02120AEF45C104120AEF51C1041208
:101783000AEF85C104120AEF99C204120AEFAC975B
:1017930003120AEFCF9703120AEF1C9903120AEF01
:1017A300659903120AEFD19903120AEF2F9A0312D4
:1017B3000AEF329A03120AEF839A03120AEFF89A96
:1017C30003120AEF7D9B03120AEF809B03120AEFB9
:1017D300019C03120AEF429C03120AEF2EA003128C
:1017E3000AEFD8A103120AEF28A203120AEFAFA54A
:1017F30003120AEFE2A603120AEF5CA803120AEF30
:10180300F9A803120AEFE4A903120AEF39AC031291
:101813000AEFF3EB01120AEF9DEC01120AEF08ED58
:1018230001120AEF23ED01120AEFA8ED01120AEFEC
:1018330002EE01120AEF49EE01120AEFB0EE0112B5
:101843000AEF2FF001120AEF5EF101120AEFE6F13F
:1018530001120AEFEFF301120AEF9CF401120AEFEF
:1018630040F501120AEF11F601120AEF39E90312EA
:101873000AEF64F901120AEFF7F901120AEF1DFBEF
:1018830001120AEFD0CE02120AEF33CF02120AEF8F
:101893007BCF02120AEFBFCF02120AEF1AD0021255
:1018A3000AEF77D002120AEFB2D002120AEF34D154
:1018B30002120AEF8ED102120AEF0CD302120AEFC0
:1018C3008CD302120AEFE7D302120AEF01D40212F9
:1018D3000AEF22D402120AEF7CD402120AEFF8D6DE
:1018E30002120AEFD1B504120AEF07D802120AEF67
:1018F3003AD902120AEFB9D902120AEFF5D9021244
:101903000AEF64DA02120AEF19DB02120AEFF1DCC2
:1019130002120AEFF8DD02120AEF70DF02120AEF79
:1019230066E102120AEFDCE302120AEFB6E50212E5
:101933000AEF77E602120AEFEFE602120AEF06E772
:1019430002120AEFFDE702120AEFF1E802120AEFB0
:1019530060E902120AEFF4A004120AEF4BA2041288
:101963000AEF0AA304120AEF72A304120AEFC89A39
:1019730004120AEFE39A04120AEF279B04120AEFF8
:101983004D9B04120AEF749B04120AEF8C9B041202
:101993000AEF2E9C04120AEF439C04120AEF669D81
:1019A30004120AEF6F9D04120AEF789D04120AEFE6
:1019B300819D04120AEF8B9D04120AEF988E041284
:1019C3000AEFA49204120AEFA99204120AEFAB924F
:1019D30004120AEF3EB004120AEFD87F00120AEF96
:1019E3006AC204120AEF17A902120AEF4AA90212E5
:1019F3000AEFB6A902120AEF51AA02120AEFEEAADF
:101A030002120AEF33AB02120AEF55AB02120AEFCE
:101A13006EAB02120AEF94AB02120AEFB6AB0212DC
:101A23000AEFF4AB02120AEF38AC02120AEF5AAC17
:101A330002120AEFBCAC02120AEF83AD02120AEFE4
:101A43003AAE02120AEFACAE02120AEF77AF0212FD
:101A53000AEFCAAF02120AEF30B002120AEF6AB0FD
:101A630002120AEFBCB002120AEF2AB102120AEF05
:101A730095B102120AEF98B102120AEF19B20212DB
:101A83000AEFB0B202120AEF30B302120AEF4FB3F9
:101A930002120AEFB3B402120AEFC0B402120AEF41
:101AA300CCB502120AEFD9B502120AEFE2B502125F
:101AB3000AEFBAB702120AEFD4B802120AEF4DB90D
:101AC30002120AEFBFB902120AEFE1B902120AEFDA
:101AD30075BA02120AEF49BC02120AEF20C00212C1
:101AE3000AEF34C002120AEF44C002120AEF4EC0DA
:101AF30002120AEF57C002120AEF60C002120AEF85
:101B03006AC002120AEF97C002120AEFC0C00212A3
:101B13000AEFCBC002120AEFEFC002120AEF13C1A1
:101B230002120AEF7DC102120AEFC3C102120AEFC9
:101B3300E0C102120AEF5DC202120AEF94C202125E
:101B43000AEFD3C202120AEF20C302120AEFA6C39E
:101B530002120AEF74C502120AEFF7C502120AEF66
:101B6300DBC602120AEF42C902120AEF9BC9021234
:101B73000AEFE5C902120AEF40CB02120AEF75CB56
:101B830002120AEFC7CB02120AEF7CCC02120AEF51
:101B93002BCD02120AEF68CD02120AEFFDCD02121D
:101BA3000AEF69CE02120AEF592A00120AEF8B2AB2
:101BB30000120AEFB92A00120AEF8F2C00120AEF63
:101BC3006F2D00120AEFC72D00120AEF022F001229
:101BD3000AEF4E2F00120AEF773200120AEF6A352E
:101BE30000120AEFBA3600120AEF503700120AEF5A
:101BF3005C3700120AEF8E3700120AEF1139001218
:101C03000AEFC23A00120AEF563B00120AEF993B61
:101C130000120AEF173C00120AEF343C00120AEFDD
:101C2300643C00120AEF993C00120AEF693D00126E
:101C33000AEF123E00120AEF984000120AEFB84171
:101C430000120AEFA34200120AEF254300120AEF23
:101C5300594700120AEF964700120AEFEE470012A7
:101C63000AEF214800120AEF8B4800120AEFC1481D
:101C730000120AEF4C4900120AEFA44900120AEFBE
:101C83007B4A00120AEF344B00120AEFCF4B0012CB
:101C93000AEFD74E00120AEFF34F00120AEF9653E2
:101CA30000120AEF8A5400120AEF8D5400120AEF51
:101CB300BC5400120AEFC25600120AEF9B570012DF
:101CC3000AEFDE5700120AEF345900120AEF735974
:101CD30000120AEFFC5900120AEF305A00120AEF01
:101CE300F55A00120AEF0D5D00120AEF7E5D001235
:101CF3000AEFBE5D00120AEF4C5E00120AEF6E5F40
:101D030000120AEF306000120AEF376200120AEF86
:101D13004F6200120AEF636200120AEF9B62001225
:101D23000AEFC96200120AEF486400120AEF6D65F8
:101D330000120AEFCA6500120AEF7C6600120AEF6E
:101D4300A36600120AEF6A6700120AEF0268001224
:101D53000AEF286A00120AEF5D6A00120AEFC06AEE
:101D630000120AEFEF6B00120AEF976C00120AEFF2
:101D7300C86C00120AEFE06C00120AEF6F6D0012DC
:101D83000AEF237000120AEFFB7100120AEF1772B9
:101D930000120AEF337200120AEF017300120AEF06
:101DA300F47600120AEF118201120AEF4382011244
:101DB3000AEF328601120AEF7E8601120AEFC48609
:101DC30001120AEF668701120AEFC28701120AEFB6
:101DD300078801120AEF4E8901120AEF628A011283
:101DE3000AEF518E01120AEFD58E01120AEFE28F2C
:101DF30001120AEF3E9001120AEF2E9201120AEF2E
:101E0300A39201120AEFAD9201120AEFBA920112E4
:101E13000AEFE59201120AEFCC9301120AEF7694CE
:101E230001120AEFF49401120AEF149501120AEF5A
:101E33003D9501120AEF5F9501120AEFBF97011258
:101E43000AEF859801120AEFCA9801120AEF47991F
:101E530001120AEFF89901120AEF2A9A01120AEF06
:101E6300709A01120AEFAC9A01120AEFFC9A01125E
:101E73000AEF509B01120AEFA69B01120AEFF29B95
:101E830001120AEF5F9C01120AEFDA9C01120AEFBA
:101E9300A59E01120AEFA59F01120AEFCAA0011223
:101EA3000AEF09A401120AEF1CA701120AEFD9A72E
:101EB30001120AEF1DA801120AEFCDA901120AEFC0
:101EC300E1A901120AEFEBA901120AEFF5A9011228
:101ED3000AEF01AA01120AEF1DAA01120AEFC8AA0A
:101EE30001120AEF07AB01120AEF11AB01120AEF5D
:101EF3001BAB01120AEF8BAB01120AEFD6AB011237
:101F03000AEFEBAC01120AEF47AD01120AEFC8ADBD
:101F130001120AEF87AE01120AEF90AF01120AEF26
:101F2300C4B001120AEFB2B101120AEFCAB1011231
:101F33000AEF25B201120AEF43B201120AEF8BB284
:101F430001120AEFB2B201120AEF4DB301120AEF06
:101F530013B401120AEFA5B401120AEF1FB501125F
:101F63000AEF39B601120AEFE6B601120AEF0EB80C
:101F730001120AEF5EB801120AEFC2B801120AEFAA
:101F830024B901120AEF52B901120AEF76B901120C
:101F93000AEFABB901120AEFDCB901120AEF0FBA6B
:101FA30001120AEF2FBA01120AEF97BA01120AEFD0
:101FB3008BBB01120AEFE6BB01120AEF0FBC011241
:101FC3000AEF97BC01120AEF1ABD01120AEF45BDD1
:101FD30001120AEF2ABE01120AEFCACF03120AEF57
:101FE30002D003120AEF23D003120AEF65D00312C3
:101FF3000AEFC7D003120AEFD1D003120AEFE1D0E0
:1020030003120AEF1CD103120AEFFCD403120AEFE6
:10201300E9D603120AEFCFD803120AEF66D90312E7
:102023000AEF08DA03120AEF2CC001120AEFAAC062
:1020330001120AEF06C101120AEF51C101120AEFA0
:102043006CC101120AEF97C101120AEFB4C1011268
:102053000AEFC0C101120AEF57C301120AEF70C39E
:1020630001120AEFF5C301120AEF08C401120AEFC5
:1020730027C401120AEFCBC401120AEF4CC60112A6
:102083000AEFFFC701120AEF95C801120AEF98C8B9
:1020930001120AEF08C901120AEF26C901120AEF59
:1020A300BDC901120AEF05CA01120AEF08CA0112DB
:1020B3000AEFCECA01120AEF3BCB01120AEF61CB42
:1020C30001120AEFECCB01120AEF0ACC01120AEF5C
:1020D30050CC01120AEF04CD01120AEF4ECD0112CA
:1020E3000AEF7DCD01120AEFDACD01120AEF0FCE0E
:1020F30001120AEF3BCE01120AEF49CE01120AEF99
:1021030096CE01120AEF06CF01120AEF4FCF01124A
:102113000AEF9BCF01120AEFC7CF01120AEFD2CF0A
:1021230001120AEFF0CF01120AEFDBD001120AEF1E
:10213300E5D001120AEF20D101120AEF30D10112CA
:102143000AEF39D101120AEF8DD101120AEFA1D1A1
:1021530001120AEFD0D201120AEFE7D201120AEFFD
:10216300FCD201120AEF8AD301120AEFCFD3011274
:102173000AEF5BD401120AEF66D401120AEFA8D565
:1021830001120AEFC3D501120AEF0FD601120AEFAB
:102193007ED601120AEFB7D601120AEFD1D6011289
:1021A3000AEF13D701120AEFE3D901120AEF90DA0B
:1021B30001120AEFFDDA01120AEF3DDD01120AEF07
:1021C30055DD01120AEF58DD01120AEF64DD011239
:1021D3000AEF78DD01120AEF80DD01120AEFB3DDA9
:1021E30001120AEFB5DE01120AEF3CDF01120AEF1A
:1021F300ACDF01120AEF2EE001120AEFEFE0011249
:102203000AEF0EE101120AEFAFE101120AEF0CE24D
:1022130001120AEF0FE201120AEF3CE201120AEF88
:1022230051E201120AEFC5E201120AEF14E40112AE
:102233000AEF1AE501120AEFA5E501120AEFC0E65B
:1022430001120AEF88E701120AEFB9E701120AEF58
:10225300DCE701120AEFE5E701120AEF14E80112C5
:102263000AEFA4E801120AEF5AE901120AEFCFE9D3
:1022730001120AEF76EA01120AEFEBEA01120AEF02
:1022830022EB01120AEF60EB01120AEF96EB011247
:102293000AEF29E703120AEF37E603120AEFD5E53F
:1022A30003120AEF989703120AEF8E9703120AEFAD
:1022B300239703120AEF579503120AEF159503129A
:1022C3000AEF199403120AEFED9303120AEF2FB5E5
:1022D30004120AEFE1B404120AEFA49303120AEF03
:1022E300E59203120AEFADB404120AEFB0EF031242
:1022F3000AEFD38F03120AEF948D03120AEF618D55
:1023030003120AEF088D03120AEF9B8C03120AEFE4
:102313005A8C03120AEF938B03120AEF2D8B0312CD
:102323000AEFCC8A03120AEF6C8A03120AEF43897D
:1023330003120AEFD78803120AEF2F8803120AEF5A
:102343002A8803120AEF1E8803120AEF518403122C
:102353000AEF2B8403120AEF7CEF03120AEF25EF37
:1023630003120AEF93ED03120AEFE5EC03120AEFEF
:1023730048EC03120AEF3EEC03120AEFD7EB031209
:102383000AEFC98303120AEF6A8303120AEF2B834E
:1023930003120AEF188303120AEFC3EB03120AEFC7
:1023A3000D8303120AEFDC8203120AEFF880031293
:1023B3000AEF6B8003120AEF20EB03120AEF278068
:1023C30003120AEF17D702120AEF008003120AEF73
:1023D30065E503120AEF38E503120AEF05E5031278
:1023E3000AEFDDE403120AEF7EE403120AEF5EE470
:1023F30003120AEF29E403120AEFD5E003120AEFEE
:10240300BDDE03120AEFA7DC03120AEF27DC031277
:102413000AEFD3DB03120AEF87DB03120AEF20EA8A
:1024230003120AEFDFDA03120AEFCCF70100000010
:1024330080FB8F000100A31687000100A116350061
:1024430004006A16250002006E16260002007016AC
:10245300270002007216280001007C1629000100E3
:102463007D1684000400F113860001000F162A0074
:1024730001007E162B0001007F162C00010083163D
:102483002D000800FD132E00010084162F0001000B
:1024930085163000010086163100010087163200D0
:1024A30001000514330001000614340001008816EE
:1024B30036000100071438000100891639000100B5
:1024C3008216830002009F16630001001314640048
:1024D300010080166500010081166D0001001414CF
:1024E30071000800F513660001009E164300010009
:1024F3008F16440002009016450001009216460014
:1025030002009316470008000B14480001009516BB
:102513004B000100961604000100A216A100010061
:10252300A61637000100A51688000100A4163C007A
:10253300010008143D0001008A16490002009716A5
:102543006700010015144D00020099164E000100AA
:102553009B164F0002009C163E0001008E16510090
:1025630001000914520001008C16530001008D165E
:10257300540001000A140000000000000001363678
:10258300010100010201000103010001040106062B
:1025930005020000070100340801000F09040101CE
:1025A3000D0100FF0E08000017020000190100FFD3
:1025B3001A0100011B0100FE1C0100081D0200009E
:1025C3001F01000120010001210200002301000F6F
:1025D300240200002601000127010008280200FF51
:1025E3002A0100072B0102402C0100002D010001EC
:1025F3002E0100012F0100FF30010B1D31080000E7
:102603003A0100083B01000F3C0100013D0100FFBE
:102613003E04000042040000460400004A04000097
:102623004E04000052040000560400005A04000047
:102633000000000020010B820000010020010D8238
:102643000000020020010F820000030020010C8221
:10265300000004004201F780000005004201B88039
:10266300000006004201EA800000070030011082EA
:1026730000000040420139810000FDFF2101098271
:102683000000010221233D16000005021023471616
:1026930000000006102348160000010621234116FE
:1026A3000000020621234516010020002001171611
:1026B300010021002001181601003E001B012F0517
:1026C300020400002901E212000400002101E412C7
:1026D3000103710301030103010301030103220346
:1026E30002030103100300030003000300030003BC
:1026F3000003000342030003240306030003000353
:102703000403120325032303250323030403040300
:102713000003000300034403000300032303000337
:102723006503210035038103000305030003000350
:10273300000300032503230303007100300160003D
:10274300110070003102200350048000100061006A
:102753000000140063007300720062004300000075
:102763001300060000000000040012000000000037
:102773000000000004000400370037003C0244005E
:10278300000000000000000065000000350081002B
:102793000000050000008300000001017101010138
:1027A3000101110101013101010101018001100148
:1027B30061013B0014006301730172016201430173
:1027C3000001130106013D0135000401120100015E
:1027D30000010001000104010401330133013C0144
:1027E300440132013600000100016501000135009A
:1027F30081010001050182018301000103027102CD
:102803003001600211027002010202020202800220
:10281300100261023A004100630273027202620213
:1028230043020002130238000002000204021202F3
:102833000002000200020002040204023700370013
:102843003C02440200023900000200026502000259
:102853003502810200020502820283020002360071
:102863000100060000000F0000000000000000004F
:102873000000000003FFFF00000403FFFF0000FF50
:10288300FF0FF4010005C4040320000100000B0046
:102893000000000000000003010F00000000000022
:1028A3000000000000000000000000000000000025
:1028B300000000000000000000000000BA15E4154D
:1028C300C0150015C615EA15C615F615CC15001565
:1028D300C615EA15D215001500000000D81500151D
:1028E3000000000000000000DE15001500000000DD
:1028F30000000000000000000000000000000000D5
:1029030000000000000000000000000000000000C4
:10291300000000000000000000003C1801003C180B
:102923000200B2170280AC170300B8170400BE17E9
:102933000480C4170500CA170600D6173100E8172C
:102943003300EE173400F417FFFF00000300030009
:102953000400080010001F003E007B00F600EC019D
:10296300D703AF075D0FB91E713D000007ECFDFDF6
:10297300FDECDCDCCCBCACAC9C9C8C7C7C6C6C5CE3
:102983005C5C4C4C3C3C2C2C1C1C0A1E1E02E81D9F
:1029930005F41D07EE1D0CD01D0DDC1DFF0000000E
:1029A300160F00000B150B020002220F3300000E5E
:1029B3000F5A6967426565416C6C69616E63653086
:1029C30039D0D1D2D3D4D5D6D7D8D9DADBDCDDDE32
:1029D300DF150AF4D4C0A59582726361555049008E
:1029E300034D4C4651181A250502000119161816F5
:1029F3001618230300303016181920231A1C1E3012
:102A0300303017181921301B1D1F30003C40423A4B
:102A13003F3F392F47300C0E020B040B0A07080007
:102A23000F02040201010101090200BE040AE803C6
:102A33000000E8030100F6FBD42903006F290E0010
:102A4300030A0C040408040328020C051E0815FFDE
:102A530000FF0414091EC082C083120E5890143E56
:102A630074C0F0A3741BF090144074C6F0A3741BDD
:102A7300F090144274CCF0A3741BF090144474D2FD
:102A8300F0A3741BF002579474F712067290143279
:102A9300E4F0E9901431F07C0B7D147A337B14124B
:102AA30014D6901695E090143BF090143C74F5F016
:102AB300A37413023A2174F0120672EAFEEBFF5478
:102AC300807003022C2A901431123AB67003022C40
:102AD30023EA241B125321707CEA241F125321641E
:102AE300137002A3E0706E8A828B83122C78901489
:102AF3004C1248B3750A00750B00800D1238F7129B
:102B030069931213DAAA0EAB0FEA4B60488A828BE1
:102B130083E0650C7004A3E0650D702C8A828B83BF
:102B2300A3A3A3A3E0F50EA3E0F50FE50A450B8AE3
:102B3300828B83A3A3A3A360C3123BF9850A828577
:102B43000B83A3A3A3A380B78A0A8B0B8A828B83ED
:102B53001248AF80B4E508242A125321FCE5082467
:102B630002F8E43509F9E8FAE9FB90144C122D5FF9
:102B7300A3A3E06402703C8A828B831248B3800B68
:102B830088828983A3A3A3A3123BF9E849601F8822
:102B9300828983E06A7003A3E06B70E4888289838F
:102BA300A3A3E06C70DA90169B125651806BECF97C
:102BB300121BFC850882850983E06401704FE508D8
:102BC3002418122C61120B63125F3B120968E5088B
:102BD3002412122C61120B63E508123AAA120B5F3E
:102BE300E508240B125F3F12096CE5082417123A1B
:102BF30047E5082402FCE43509FDE5082419FAE455
:102C03003509FB122406740A120B3C800CE06402A3
:102C13007007AA08AB09121CDAAA08AB09121344FD
:102C2300EEFAEF6480802DEA5402600C9016AA74C9
:102C330001F0EA6402FA8023EA5408601A121BF6D0
:102C4300EA4B700B90144E125E167A08122C6EEE3D
:102C53006408FAEFFB80047A007B000265C5F58205
:102C6300E43509F583E0F50A780A22FB901431E094
:102C7300F91214A622A3A3E0F50CA3E0F50D227B21
:102C830000901431E0F912149A74042274F41206B9
:102C9300728A088B098A828B83A3A3A31246AB1281
:102CA3003A5238F583E02409FA12655D7003022D68
:102CB300528A828B83740212472085088285098396
:102CC300122D5FE8F0A3E91261D78A828B83A3A355
:102CD300A3A3A3A3A3A3F0E5082403F8E4350912EF
:102CE3002D54123A523AF583E08E828B83A3A3A329
:102CF300A3F0EE2409FAE43FFB8E828F83A3A31291
:102D03005903F5838882E0A2E58E828F83A3A3A370
:102D1300A3A3500474018001E4F0E5082403F582C1
:102D230089831248B3EA124E343BF58312652412A9
:102D33000B5B123A513B1259F58E828F83A3A31278
:102D430076D3120B3CEEFAEFFB9014311265AA8096
:102D530016F98882F583E0FAA3E0CA22124A50A347
:102D6300A3227402120B3C7F0402089D74F2120624
:102D7300728A088B09ECFAEDFB740E120E33E0FC39
:102D8300120E8E8A0C8B0DAE0CAF0DEA4F6030AC79
:102D930008AD09120E7CE96026AC08AD09EEFAEF26
:102DA300FB120E82E970148E828F83123BE6FAEFD8
:102DB300FB120E76AA08AB09120EA67900800279DF
:102DC300B402499F74F012067274F6120BD5EAFE30
:102DD300EBFF8C088D09750FB3852182852283E46F
:102DE300F0750E008002050E902A49E493F8E50E73
:102DF300C3984003022EEEAA0E7B00120ECA8A0A63
:102E03008B0BEA4B60E08A828B83A3A3122EF528F7
:102E1300F0F8C3EE98EF940050CC7C157D00790058
:102E2300AA08AB0912132C850A82850B83A3A3A3DB
:102E3300A31269D0E0F8EEC3982925E0F8E433F94A
:102E4300E50A28F582E50B39F583A3A3A3A3A3A37E
:102E5300123A5CA31254788A0C8B0DAC0CAD0DAAFC
:102E630008AB091214D6850A82850B83A3E064019B
:102E7300700A125F3B7401123A6E80447401120BA4
:102E8300B5850A82850B831248B1120EB2E9603D03
:102E93007409120E33E0C0E0125F3BD0E0F0740916
:102EA300120E33E0640370137401120BB5E50824AA
:102EB3000BFAE43509FB1214D680127401120E3397
:102EC300123BF9E50812545E3509126991850A82AD
:102ED300850B83125F47123A6EA3A3E0C0E0E508B7
:102EE3002414125F3FD0E0F0750F00A90F740A029B
:102EF30065C2A3A3A3E0F8852182852283E022741F
:102F0300F7120672E9FE8A828B83A3A3A3A3A3A36A
:102F1300E0540860338A828B83A3A3A3A3A3A3E013
:102F2300540260218A828B83A3A3A3A3A3A3A3A395
:102F3300A3E06406600F74E96E600A74CD6E6005E9
:102F430074F06E7003121BDE02429E74F01206725E
:102F530074EF120BD5740F120E33125CFA7408124D
:102F63000E33E9F0ECFEEDFF7405120E33124066EA
:102F730012428AA3E0F9120E9A7406120E33125CFF
:102F8300FA7406120E33124EC57003023209123A56
:102F930096E0FA7406120E33E0F9121B1E12326920
:102FA300F8A3E0F9E8497003023209EE2403F50AB5
:102FB300E43FF50BEE2406F508E43FF5097C0085B4
:102FC3000882F5831248B3850A82850B83E0F912E0
:102FD3000EA07403120E33125CFA850A82850B83EA
:102FE300E0C0E0852182852283123262D0E0124F55
:102FF300DAF98521828522831238FE124B2C122E98
:10300300F8FAA3E0CA2407F582E43AF583E8F0A3CB
:10301300E4125D052406F582E438F583E412699D24
:1030230012469F120B5BEE123A523F1259F574038C
:10303300120E331246AB24091276CD120B3C7429BF
:10304300120E331269CA122D59124FED3A126991B9
:10305300742B120E33E0C0E0852182852283124E49
:103063008CD0E0F07402120E33E4F07425120E33A8
:103073007808120DDC0231607403120E331259BD4D
:103083008882F583123251A3A3A3125483FB120E39
:10309300B8850E82850F83A3EAF0A3EBF0740312C5
:1030A3000E33123262A3123251125692A2E6500F1D
:1030B300850E82850F83A3A3A3A3A3E0D2E1F074BB
:1030C30005120E33E0706B850E82850F83A3123BCE
:1030D300F990148CE0687003A3E0697055850E8243
:1030E300850F83A3A3A3123A31750C00780C120B3E
:1030F300637808120B577429120E33E0F50C780C21
:10310300120B637427120E3312096C90149912096F
:103113006C79007419120E33124883121D22740A3B
:10312300120B3C850E82850F83A3A3A3A3A3E044C4
:1031330005F07402120E33E004FC8E828F83124872
:10314300AD8E828F83A3A3A3E0F9120EA0740312A2
:103153000E33125CFA7402120E33E004F07403129D
:103163000E33124EC560677402120E33E0FA740612
:10317300120E33123BF9C3EA98E4995051740212C8
:103183000E3312353B852182852283E028F8A3E0A4
:1031930039F9E8240FF50EE439F50F850E82F5832E
:1031A300E4F07403120E3312325C640160030230E4
:1031B3007B7405120E3374011265B0F07403120EA2
:1031C3003312578412355EE8F0A3E902309F85215C
:1031D300828522831248B3121B2485218285228390
:1031E30012096C7426120E33E0FD7425120E33E0BF
:1031F300FC740A120E33E0F9EEFAEFFB121BD874DB
:1032030002120B3C80438E828F83A3A3A3E0C0E012
:10321300740C120E33D0E0F0126419E0C0E0740DA8
:10322300120E33D0E0F07406120E33124EC570093D
:10323300740E120E3374B98007740E120E337410A9
:10324300F07409120BAD121D1C74110265C2E085E6
:103253000E82850F83A3A3A322E0124FB2E022E0E4
:10326300124FB2A3A322852182852283EAF0A3EB26
:10327300124ECE2274F012067274E1120BD574044E
:10328300120E33E9F07403120E33ECF07402120ED3
:1032930033EDF08A0E8B0F742F120E33122C7AAA91
:1032A3000CFB121B127401120E33E9F0AA0CAB0DC6
:1032B300121B187401120E33E07003023536852198
:1032C30082852283E480158E828F83A3A3A3A3A385
:1032D300E0D2E3F0852182852283E004126508F8B9
:1032E300852182852283E0C398400302352D740132
:1032F300120E33E0700302352D852182852283125D
:10330300353BE50C28F8E50D39F9E8240FFEE439DF
:10331300FF8E82F583A3A3A3A3A3E0A2E040B57528
:103323000800750A08750B007402120E33E060037F
:103333007508207C087D0079007405120BAD12130B
:103343002C8E828F83E0603E9014DCE06401701A5F
:10335300E508D2E3F508750B1012354B120E33E86E
:10336300F0A3E912537674FF807643080C750A0CB8
:103373008E828F83A31235561269937405120E330E
:1033830074FFF0A3805A7404120E33E06009E50859
:10339300D2E6F508750A0A8E828F83A3E064FE7075
:1033A30003A3E0F470307412120E337404125F65D9
:1033B300F8741D120E33E81247207412120BAD126B
:1033C3001A407D007C0079007415120E33AA82AB7B
:1033D30083121824800B12354B120E33E8F0A3E945
:1033E300F07407120E33E508F0123A8DC0E0740949
:1033F300120E33D0E0F0740A120E337401F0740528
:10340300120BAD121CE07411120E33E0600302358F
:103413000B740D120E33124FD58E828F83A3A3A389
:10342300A3F0740D120E331246EEE50AF0A3E50B7A
:10343300F07403120E33E0C0E012467FD0E0125660
:103443009260119014DCE0C0E0740D120E3312464A
:10345300C9D0E0F0740D120E33123BF9850C82854E
:103463000D83A3A3A3A3A3123544241C125CF4125B
:1034730069AD12354612564439126438C0E012461B
:1034830066D0E01264FDC0E0740D120E331241AC3D
:10349300D0E01261FEC0E0740D120E331241A2D0CF
:1034A300E0F0740D120E33123556123544242A12ED
:1034B3005CF4850E82850F83A3A3A3A3A3A3A3A375
:1034C300E0125CED123A7CC0E012418ED0E0F07461
:1034D3000D120E331248B3850E82850F83126513C6
:1034E3002428F582E43B126991123A85126524126D
:1034F3000B5B1259EEEA125C863B1276D1120B3C3F
:103503007405120BAD121CE68E828F83A3A3A3A3B3
:10351300A3E0D2E0F07411120E33E060030232CA6A
:103523007401120E33E0140232D67900AA0CAB0DEB
:10353300121BE4741F0265C2E075F007A4F8A9F03A
:1035430022A3A31248B7E8228E828F83A3123BFDE6
:10355300740522E012355EA3A3A322F8A3E0F98544
:103563000E82850F83A32274F012067274E8120B85
:10357300D5E9852182852283F08A0E8B0F8A828B7F
:1035830083A3A3A3A3A3A3A3A3E0F9121B3C8A08C9
:103593008B09EA4B7003023647E50E124E48123A86
:1035A300A5123A3C852182852283E0600302364AD4
:1035B3007C04850E82850F83A3A3A3A3A3A3A3A344
:1035C300E0F9121B42EE4F607B8E828F83A3A3A38D
:1035D300A3123BF97407120E33125E2B123BF974DC
:1035E30009120E33124750C0E07411120E33D0E0AB
:1035F3001261DCA3A3A3A3A3A3A3123BF9740F1229
:103603000E331269937412120E33E41265B8C82490
:103613001FF582E438F5831259B9C413135403FC1C
:1036230070027C048E828F83E0F97808120B5F743A
:103633002059FD744059F97403120BAD121BD87451
:1036430002120B3C0265C07C08850E82850F83A3A2
:10365300A3A3A3A3A3A3A3E0F9121B428B0BEA4BDF
:1036630070030235C8EE4F60DB852182852283E03B
:10367300F50C780C120B63850882850983A3A3A339
:10368300A3A3A3A3E0F50C780C120B638A828B83AC
:10369300A3A3A3E0FB8A82850B831271F08A828540
:1036A3000B83E0FA8E828F83A3A3E0F912240C74B8
:1036B30002120B3C0235CC74F712067274FA120B29
:1036C300D5E9FE780179017F00800379000F124A62
:1036D3002FE0FCEFC39C5026EF75F007A4FC85F0A8
:1036E30008AD08EA2CFCEB3DFD12401EE0A2E050C1
:1036F300DA540C60D6E0A2E250D3780080CF8A82FD
:103703008B83A3A3A3A3A3A3E0703DE9A2E0400599
:1037130074016E70338A828B83A3A3A3A3A3A374C0
:1037230001123A0EE0C0E07403120E33D0E01240EF
:103733007DE0C0E07404120E33D0E0F07405120E85
:1037430033E8125958121D1C740602429BC082C0F2
:10375300837901121BE402579474F4120672EA4B44
:103763009016AA6019E4F08A088B09F50AF50B781C
:1037730008120B577A02122C82120B3C800A740136
:10378300F07A027B00122C6F022D6A74F01206721B
:1037930074F3120BD57403120E33E4F0A3F09014F8
:1037A3004C123A3C7401120E33E4F0A31247250481
:1037B300F0901486E0A2E35003023881123A0274B7
:1037C30009120E33120E1C7409120E337808120DEF
:1037D300DC90144E7808120BBD7405120E33780872
:1037E300120DCD1239057405120E337808120D80AF
:1037F30050077A017B000238F27405120E33780CFD
:10380300120DDC90169AE0F509780C79081206037C
:10381300A80CA90D90169BE0C398E4995003E0808F
:1038230001E8852182852283F07409120E3378081A
:10383300120DDCC008C009C00AC00B7405120E3398
:10384300780C120DDC123905780C7908120603E4A2
:10385300F50AF50BD00FD00ED00DD00C780C7908EB
:10386300120CA490144E780C120DCD80111238F75F
:10387300126993EEFAEFFB1213DAAE08AF09EE4FBB
:1038830060658E828F83122EF5C398502DEE24032C
:10389300F8E43FF9E0FA88828983E0C39AF0602371
:1038A3007403120E33123D5F7401120E33EEF0A354
:1038B300EF125E46FEA3E0FF80C48E828F83A3A334
:1038C300A3E4F08E828F8312768A7401120E331270
:1038D3004EC58E828F83A3A3A3A36091125E1F1292
:1038E3000E331238FE80897403120E331248B374F8
:1038F3000D0265C2123BFD90144C221259E4A3A39E
:10390300A322901699127692E4F50AF50B2274F02D
:103913001206728A088B09890A7800790090144C80
:10392300123A3CFBEE4B601E088E828F83A3A3A347
:10393300A312487D601008E87001098E828F8312FC
:103943003A38EA4F70E390169C1248B3C3E89AE9F9
:103953009B40030239F57A061239F8A80CA90DEA3F
:103963004970030239F58A828B83E508F0A3E509E0
:10397300123A17E50AF090169B124A37123A0EA331
:10398300E4F0A3F090144C12487D600D8E828F8377
:10399300A3A3A3A3126993801790144C1269939065
:1039A3001486E0A2E34009123A0290144E120E1C50
:1039B300901486E0A2E3503A7A087B00901431E039
:1039C300F91214ACEA4B4C4D7028901699E0F508A7
:1039D300A3E085080CF50DE4F50EF50F780C120B3A
:1039E300577A087B00901431E0F91214A074041282
:1039F3000B3C0265C57B001213D48A0C8B0D22127B
:103A030014BEEAF8EBF9ECFAEDFB22123A12221299
:103A13003A17A322F08A828B83A3A322E508F0023C
:103A2300429EF08E828F83A3A3A3A3A3A322125348
:103A33002FA3A3F022A3A3A3A3E0FEA3E0FF227F6F
:103A43000502089DF582E43509F583E0F922EA12BF
:103A53003A56222410F582E422123A64A3A3A3A3C4
:103A630022123C0185088285098322123A7222F0D0
:103A7300850A82850B83A3A322E50E2411123AA2A1
:103A8300E022E50E240E123AA222E50E2410123A89
:103A9300A2E022123A9A22EE123A563FF58322F519
:103AA30082E4350FF58322240FF50AE43509F50B7B
:103AB300780A22E0F91213568A088B09EA4B22741A
:103AC300F2120672890B8A088B098A828B83124849
:103AD300B3121C08EA4B600479B8806A121C14E91B
:103AE300F89007FFE493F9E8C399400479B280564C
:103AF3007A151239F8AE0CAF0DEA4F7004791080C5
:103B0300458A828B83E4F0A3123A17E50BF0750A1A
:103B1300007808120B5B7C127D00EA24031264CF49
:103B2300120B3C901452124EC57008901452800C24
:103B3300123BF988828983123B4C70F4EEF0A3EFB9
:103B4300F0121C26790002499F1248B7EA4B88827B
:103B5300898322C082C08390145280048C828D8317
:103B63001271F1EC4D60288C828D83A3A3E0696010
:103B73000574FF6970E68C828D83A3A3A3E06A704A
:103B830003A3E06B70D6EC2403FAE43DFB80047AD4
:103B9300007B0002579474F7120672E9FD74FE6D00
:103BA30070047C0180027C0090145280096D7002C5
:103BB3007C0188828983124EC5601F88828983A312
:103BC300A3A3E06A7003A3E06B70E7ECA2E0888232
:103BD3008983A3A3E050D6F9800279FE02429EEEC8
:103BE300F9800CA3A3127692EE227402120B3C7F8F
:103BF3000202089DF583123BFD22123C0122E0F8EC
:103C0300A3E0F922123C018E828F8322120B3C7FA8
:103C13000302089DC082C083790090145280010979
:103C2300E0FAA3E08A82F583E582458370F10257C7
:103C33009474F6120672E4F508F5097808120B5F1E
:103C43009007FFE49375F013A4A9F0123D54126991
:103C5300F1120B3CE9FE74096E7003121C20023B47
:103C6300E274F612067274FE120BD5852182852248
:103C730083E4F0A3F0A821A922880889097808120F
:103C83000B5F7508027509007808120B5F126662F4
:103C9300120B3C023BED74F512067274EB120BD55A
:103CA300852182852283E4F0A3F090145280748EE0
:103CB300828F83A3A3E0C0E07402120E33D0E0121C
:103CC3005376A982AA8389088A09750A007808129B
:103CD3000B5B7C127D007406120E331269B6120B55
:103CE3003C7402120BA5880889097808120B5F75CA
:103CF30008137509007808120B5F7404120E33124F
:103D03004E6875F013A4F8AAF075F013E9123D504C
:103D130012666A120B3C852182852283123D5F8ED7
:103D2300828F83123A3CEE4F7085A821A92288081E
:103D330089097808120B5F75080275090078081263
:103D43000B5F126662120B3C7415023C0FA42AF936
:103D5300E82402FCE439FD7A427B0022E02401F0EE
:103D6300A3E03400F02274F412067274EB120BD544
:103D73007E007F00A821A922880889097808120BF0
:103D83005F7508028E097808120B5F7C007D007A4C
:103D9300421269FD120B3CE9706C8E088056740266
:103DA300120BA5880A890B780A120B5F750A137523
:103DB3000B00780A120B5FE50875F013A4F8AAF05C
:103DC30075F013E509123D501269FF120B3CE970BF
:103DD3001B7403120E33AA82AB837402120E33E0F8
:103DE300F9121C02E970050EEE70010F0508E508D3
:103DF30070020509852182852283123BF9C3E508F8
:103E030098E509994098EEFAEFFB7415022D677453
:103E1300F61206728C828D83A3A312406BF0EA1212
:103E23005C8C3BF583E0C0E0124028D0E0F0EA244C
:103E33001DF582E43B123BF712400C124066F0A3DF
:103E4300F0EA241FF582E43BF583123A3CEC123F7F
:103E5300FF3DF583EEF0A3EFF01240053BF583122F
:103E63004036A3A3A3A3A3A3EEF0A3EF1258E7FE48
:103E73008C828D8312407574035EFEC394034003EA
:103E8300023FF2EE600874026E6003023F178C82F9
:103E93008D83E0540CFE740C6E7003023F56E0A257
:103EA300E4400D88828983E08C828D83A312408B4A
:103EB30074086E6003023F561240167401F08A8242
:103EC3008B83A3A3A3A3A312533C70148C828D836F
:103ED300E0440C12407DA3A3124036EEF0A3EFF0B2
:103EE3008C828D83E0A2E4402B88821240441240EE
:103EF30059500109F582124044A3A3A3A3A3A3F03D
:103F0300A3EF1240858C828D83A3A3A3F0E824033F
:103F1300F850010988828983E0C0E0EC2411F5821E
:103F2300E43DF583D0E01240758C828D83E0A2E7F7
:103F3300507588828983E0FE8C828D8312408B7456
:103F4300FC5E700C8C828D83A3E054036403701EAB
:103F5300023FF2124016E4F0740C6E6003023EC19D
:103F6300888212404A124059500109023EE38C8272
:103F73008D83A3E05403603288828983E0C0E0EC40
:103F83001240303DF583D0E012408C8C828D83E06B
:103F930054036402701488828983E0C0E012401ED7
:103FA300D0E012408C8003A3E4F0EC124E343D12B7
:103FB3006991EC2410FEE43DFFEA241DF582E43B05
:103FC300F583E0F5088E828F83E0C3982508F50812
:103FD300F0EA2417F8E43BF98882F583E0C39508F7
:103FE300C0E012400CD0E01258E7C39508500A1203
:103FF300400CE4F0124028E4F0023BF22415F58271
:10400300E422EA240DF582E422EC240DF582E43D5A
:10401300F58322EC124FED3DF58322EC2414F58257
:10402300E43DF58322EC123A563DF583222413F541
:1040330082E422E0FEA3E0FF8C828D83A3A3A3A3EB
:104043002212404AA3A3228983E0F508A3E0FFE5F7
:10405300088C828D8322A3A3A3A3F0A3EFF0E8240B
:1040630002F82212406BA322E4F08C828D83A3A377
:10407300A322124093A882A98322123A12A3A3A3D4
:10408300A322124093A3E022A312409308A9832200
:104093001258F0A32274F412067274F3120BD58A29
:1040A3000A8B0BECFEEDFF8C82F583E0540CF508D4
:1040B300E0A2E75006E508D2E7F508E508D2E1F506
:1040C3000812533C7006E508D2E4F508E0A2E55077
:1040D30006E508D2E5F5087C087D007900AA21AB46
:1040E3002212132C7402120E33E508126997C0E0F2
:1040F3007403120E33D0E0124725E50AF0A3E50B53
:10410300F07405120E33126203120E33E0707774EB
:1041130008120E331246AB1258D93812621EC0E091
:104123007408120E331241ACD0E01261FEC0E07489
:1041330008120E331241A2D0E0F07408120E3312AB
:104143004198E01246D3124754125CEDEE2411124B
:104153005308C0E012418ED0E0F0EE24141253084D
:10416300C0E07408120E331246AB2435F582E438EE
:10417300F583D0E01246F8C0E07408120E331246FD
:10418300AFD0E0125F57740D022D67E82432F58239
:10419300E439F58322123C07A3A3A3A3A3A322120A
:1041A30046BF1263FD38F583221246BF2426F582EB
:1041B300E438F5832274F71206727E008A828B83B9
:1041C300A3A3A3A3A3A3A3A3A3E064046003024242
:1041D3007A124FE5E0600302427A124E473B124ED9
:1041E300C3700302427A88828983E0540360030226
:1041F300427AE8124FED39F583E0FA8C828D83A37E
:10420300A3E0FBA3E0CB2411F582E43BF583E06A52
:10421300706588828983A3A3A3A3A3A3A3A3A312E3
:10422300427EE06A7003A3E06B704C88828983A3AB
:10423300A312428AE0FFA3E0CF24061253086A7058
:1042430003A3E06B703188828983A3A3E0F88C8297
:104253008D83A3A3E0F9A3E0F5838982A3A3E06898
:1042630060138C828D83A3A3A3E0F5838982E0543A
:104273000C640470027E01EEF98020124282221245
:1042830048BB8C828D8322A3A3124282A3A32274F0
:104293000C120E33E0F9740D120B3C7F0102089DE2
:1042A30074F612067274FC120BD5EAFEEBFFECFAFD
:1042B300EDFB8C82F583A3E054036016901448123F
:1042C3004EC560597900EEFCEFFD125AE41207FD6A
:1042D300804B852182852283EEF0A3EFF0740212D6
:1042E3000E3312471AAC21AD227A3E7B1C121E6696
:1042F3008A088B09A808A909EA4960218A828B8365
:10430300A3A3A3A3A3A3A3A3A37406F07A00888201
:104313008B831246AB125CADE0F9121DC474040228
:104323003BEF74F212067274F3120BD5EAFEEBFF45
:104333008A82F583A3A3A3A3A3A3A3A3A3A3E0F5C3
:104343000A9016AAE0700579BA02466375080175EA
:104353000900750C00750D007C087D007900AA2109
:10436300AB2212132C7405120E33740112472D5411
:104373000460127402120E33E0D2E612472D540881
:104383007003750803E05410600674404508F5088F
:10439300E0540860227402120E33E044C012472D29
:1043A3005420600A7403120E33E0D2E080087403D1
:1043B300120E33E0D2E1F0EE2415125308124693A5
:1043C3007003740169700674084508F5088E828FBE
:1043D30083A3A3A3A3A3A3A3A3E07016121EC08564
:1043E3002182852283125CFA7402120E33E0D2E238
:1043F3008030640F70107402120E33124735740448
:104403004508F508807F8E828F83A3A3A3A3A3A36C
:10441300A3A3E064028E828F83700A1269CAE8F054
:10442300A3E9F08060A3A3A3A3A3A3A3A3E06403CE
:10443300700DAC21AD22EEFAEFFB121C7480468E98
:10444300828F83A3A3A3A3A3A3A3A3E064017035D3
:104453009014DCE060107402120E331247357509B4
:1044630010750AFF80187402120E33E0440C1247D1
:104473002574FDF0A374FFF074044508F5088E82DB
:104483008F83122C7AEE2415125308A2E0503F7446
:1044930002120E33E0540C701B8E828F831248B3CA
:1044A3001218F0E9700579BB0246637402120E33E9
:1044B300E0D2E5F0EE2415125308A2E05010740286
:1044C300120E33E0540C64047004E0D2E5F0EE24E1
:1044D30011125308C0E07404120E33D0E0126205C7
:1044E300120E33E0600302465C7408120E33124668
:1044F300EEE508F0A3E509F0124689E0C0E01246B4
:104503007FD0E0F0124670E0C0E07408120E331260
:1045130046AB12403038F583D0E012475464017043
:10452300119014DCE0C0E07408120E331246C9D0B7
:10453300E0F07408120E331246E912467AFAE824C0
:104543001CF582E439F583EA124720EE2415FAE4D8
:104553003FFB8A82F5831271F1E812564439F583E1
:1045630012471AEE241C125308C0E0124666D0E02C
:1045730012578A12469370037401697013740812F8
:104583000E33124FD5FAEE241D125308F9121B48AD
:104593008E828F83A3A3A3A3A3A3A3A3A3E0C0E0BB
:1045A3007408120E331241ACD0E0F07408120E33CB
:1045B3001241A2E50AF07408120E33124E68242841
:1045C300F582E439F583E50CF0A3E50D12470012FB
:1045D30046D3125381125CEDEE12467AC0E0E82412
:1045E30033F582E439F583D0E0F0EE241B1253084F
:1045F300C0E07408120E331246AFD0E0F0EE241A76
:10460300125308C0E07408120E331246AB2432F57D
:1046130082E438F583D0E01246F812469F120B5B12
:104623001264031271F1740B120E331246AB242F72
:104633001276CD120B3CEE2415125308544060122F
:10464300901468124EC5600AAA21AB22125AE412D2
:1046530007FDAA21AB22121CE6740C120E33E0F9FB
:1046630002499AE82420F582E439F58322EE2419DD
:10467300F582E43FF58322126412E022E82412F566
:1046830082E439F58322EE2418F582E43FF5832290
:104693005480F8A3E05401F974806822F508A3E07C
:1046A300F509750A007808221246BF221246BF2474
:1046B30034F582E438F58322A3A3A3A31246C322CD
:1046C300E0F8A3E0C8221246BF123FFF38F5832269
:1046D300FAA3E0FBE8242AF582E439F583EAF0A3A0
:1046E300EB22A3A3A3A3123BFDEE22124E6C124EA8
:1046F3004C39F58322F0EE241312538922F0EE2471
:104703000D12538922E0FC8A828B83E02CFCA3E008
:104713003400FD8A828B83ECF0A3EDF022F0A3E456
:10472300F022F085218285228322F0EE2415125394
:104733008922E0D2E3F012473D228E828F83123C1E
:1047430001852182852283E8F0A3E9F022E8F0A322
:10475300E9125E40E02274F71206728A828B83A309
:10476300E0640170047E6380027E648A828B83E04E
:104773006008790512478D24F3FE901484E06007E6
:10478300F912478D24F2FE02427A121D8EE9F8EEE9
:10479300C3982274F612067274FE120BD585218219
:1047A300852283125CFAE9FEECFAEDFB90053412E4
:1047B3004EC56032A821A922880889097808120BFE
:1047C3005F7D01740E120E33E0FCEEF99005341296
:1047D3005CCE1207FD7402120B3CEA4B60047900B5
:1047E300800679B2800279B6023BED74F712067245
:1047F300E9FE90143E124EC5601F7409120E33E099
:10480300F5087808120B63EEF990143E125CCE1291
:1048130007FD7401120B3C800279B602429E74F7C5
:104823001206728908ECFEEDFF79B5E508245E6097
:104833002014600624F86034803D90053612487DCC
:104843006035126A0E1207FD8E828F83125CFA8026
:10485300249014401271F1EC4D601CEEFCEFFD90BE
:104863001440125CCE1207FDE9F9800B90143C1240
:1048730048831214D6790002429E1248B7EA4B22AB
:104883001271F5EEFAEFFB2274F7120672E9FE7964
:10489300B574AB6E700B90143C1248B31214D679F6
:1048A3000002429E8E828F83A3A3A3A3A3A3A3A3E9
:1048B3001248B7221248BB22E0FAA3E0FB2274F1AC
:1048C300120672EAFEEBFF8C0A8D0B750801901439
:1048D3008CE06E7003A3E06F700C12498EAA0AABD2
:1048E3000B1214D6805E121EC6EE6A7002EF6B7056
:1048F30009AA0AAB0B121ECC804AAC0AAD0BEEFA26
:10490300EFFB121A1CE9F5089016A1E0703612238A
:1049130040E97030E508702C90145CE06E7003A3DE
:10492300E06F7020EE4F601C750C54750D14750EFE
:1049330000780C120B5B7C087D00AA0AAB0B126992
:10494300BA120B3CA9080272ED74F2120672EAFE67
:10495300EBFF8C088D09750A0112498EEEFAEFFB05
:104963001214D0E96401701190148C123BF985087C
:1049730082850983126993800EAC08AD09EEFAEFC4
:10498300FB121A22E9F50AA90A8011121EBA8A0C2F
:104993008B0DAC0CAD0D22740D120B3C7F0602087F
:1049A3009D74F6120672EAFEEBFF7A0D7B0012137A
:1049B300D4EA4B6062EE2424126697F0EE242512AB
:1049C3006697A3124A5C12669DA3A3126430124A2F
:1049D30037F0EE124A1D124A4CE8F0A3E9124A736B
:1049E300124A44126993EE124A261264F3A3A3A354
:1049F300A3F0EE2433125308C0E0124A2FD0E01282
:104A03006222124A44A3A3A3E8F0A3E9124A6BC0AB
:104A1300E0124FE5D0E0F0023BF2242AF582E43FB6
:104A2300F58322242EF582E43FF58322EA12545EB5
:104A33003BF58322124A3B22E08A828B83A3A3A302
:104A430022126552A3A3A3A322124A5022123C01AD
:104A53008A828B83A3A3A3A322F0124A6122EE24AA
:104A630026F582E43FF58322F0EE243212538922A5
:104A7300F0EE242C1253892274F412067274FE127F
:104A83000BD5ECFEEDFFEC241612530864057010F1
:104A9300EC2406FCE43FFD121C6EE97003024B2775
:104AA300AC21AD2212674C1218F685218285228330
:104AB300124EC5606B8E828F83E064017058E87577
:104AC300F009A4F8AAF075F009E9A42AF974B52845
:104AD300F8740139F9E8FAE9FB8882F5837808125A
:104AE3000DDCEE124BC9120D8040278521828522F1
:104AF300831246E9125316124B2C7808120DDC90E0
:104B030081697808120CB88A828B837808120DCDDC
:104B1300800A79A28010EE240F12698D7900800635
:104B230079A1800279C8022D6512474AEE12641EEC
:104B33002274F21206728A0C8B0DECFEEDFFEC125E
:104B43005316E4F0A3F09081757808120DDCEC1293
:104B53004BC9120C016067EC240E12530F703478AA
:104B6300B3901483E070289014B5E064017020ECD6
:104B73002411125308F9121D768B09A909EE124E5E
:104B8300483F125CF8EA4960047800800278A18803
:104B930008802EE060046402700A121C80E9F508A4
:104BA3007007801DE064037010EEFCEFFDAA0CABF0
:104BB3000D12191AE9F50880087508A18003750814
:104BC300A3A90802499F12641E78082274F01206F2
:104BD3007274F5120BD5EAFEEBFFEA240AFCE43FFC
:104BE3008C82F58312768E124E527403120BB58AA1
:104BF300828B83125AEEE97003024CB87401120BD4
:104C0300B57403120BAD1218F67401120E33124E63
:104C1300C57003024CB8E875F009A4F8AAF075F062
:104C230009E9A42AF974B128FC740139FDE50824C3
:104C33000E125F3FE4F004120E33123BF9E5081243
:104C43004E4835091269918C828D83120E10E50846
:104C53002412125F3F120E1C9081697808120DDC3A
:104C63008C828D837808120D178C828D83780C12B9
:104C73000DDC9081FD7808120DDC780C79081206A2
:104C830003E5084509450A450B702A7401120E33E2
:104C9300124E6875F009A4F8AAF075F009E9A42A80
:104CA300F974B928F582740139F5837401F07A0037
:104CB3007B08124E758E828F83A3A3A3A3A3A3A302
:104CC300A3A3A3E02406FCA3E03400FD8E828F831C
:104CD300125AEE126210603EEE240A124E3A124647
:104CE300EE7468124720E8124E3439F5837402F0EB
:104CF30090146E120E108C828D83125CE71258D9B9
:104D03003CF583120E1C9081697808120DDC901417
:104D13006E7808120D17124EB0705D90143C124E4F
:104D230060A3A3A3A3A3A3A3A3A3A312590F121422
:104D3300D0E970101258CD90143C1258DF70051250
:104D4300621060348E828F83A3A3A3A3A3A3A3A320
:104D5300A3A3124E601248B3121920E960118E8288
:104D63008F83A3A3A3A3A3A3124E9CE4F0A3F08E6B
:104D7300828F83124E82E4F0124EB06003024E2FF4
:104D83008E828F83A3A3A3A3A3A312768A901483F3
:104D9300E06003024E249014B5E064016003024E08
:104DA30024750A3A750B00780A120B5F7402120B12
:104DB300A5880A890B780A120B5F126C89120B3CC7
:104DC300E9705BE508240E125F3F7401124ECAC0FE
:104DD300E0E5082411125F3FD0E0F0E508240F124C
:104DE3005F3F743A12472090146A120E10E50824AC
:104DF30012125F3F120E1C9081697808120DDC902D
:104E0300146A7808120D179081697808120DDC90E6
:104E1300146A7808120C017008124E718003124E46
:104E230052124EB070061257D074A1F0740B026583
:104E3300C2240EF582E422F8E43FF9E8FCE9FD8898
:104E430082F58322EA124E4C22240FF582E422E5F6
:104E530008124E4C3509F583E4F0A3F0221271F5E4
:104E63008E828F8322124E6C22123C01E8227A003A
:104E73007B02901314E0F9121380228A828B83A39E
:104E8300A3A3A3A3A3A3A3A3A3124E90221246C337
:104E9300240EF582E438F58322A3A3A3A3124EA420
:104EA300221246C3240FF582E438F583228E828FC3
:104EB30083A3A3A3A3A3A31246BB240FF582E438C1
:104EC300F583124E6C4922124ECE22F08521828543
:104ED3002283E02274F6120672EAFEEBFF7A237B4A
:104EE300001213D4EE240AF508E43FF5098508827D
:104EF300125CF87C237D00790012132C85088285CF
:104F03000983124EC57003024F98EEFAEFFB121C91
:104F13008C124EB060748E828F83124FCB64018EDD
:104F2300828F83A3A3A3A3A3A37007124FC1740EFD
:104F33008021124EC57010126210700B8E828F8307
:104F4300A3A3E0A2E05007124FB7740D8005124FE0
:104F5300B77405126222540364017007124F9F74E1
:104F630005800B901484E0C0E0124F9FD0E0124FF5
:104F7300DAF58388821253358508828509831246C0
:104F8300AB125C8C38F583E9800E85088285098332
:104F9300125D718003125CB4F0023BF28E828F8348
:104FA300A3A3A3A3A3A3A3A3A3A3124FB122E0127A
:104FB3005CD3A3228E828F83A3A3A3A3A3A31246AE
:104FC300BB125C9238F58322A3A3A3A3A3A3A3A339
:104FD300A3A3124E90E022124FDE22126761F8A3C0
:104FE300E022EA124FED3BF58322240CF582E42202
:104FF30074F112067274E4120BD58A0C8B0D8C08B3
:105003008D097A237B001213D48A0A8B0BAE0AAF65
:105013000BEA4F70030252F0125C98E50824151254
:105023005321687003A3E0698E828F837004740236
:1050330080027401F0E508240DF8E43509F988824B
:10504300F583E0FAC3E49AFA95E0FB12531D2AFABA
:10505300A3E03BFB8E828F83A3A3A3A31258F68EF8
:10506300828F83A3A3F0EE2420F582E43FF583E44B
:10507300F0EE2421F582E43FF583E4F0EEFAEFFB52
:10508300121D4085088285098312533C70098E8264
:105093008F83A37405800690148412532AF0EE24A0
:1050A30017F50AE43FF50B8E828F83125335E9859A
:1050B3000A82850B83F0EE2416F8E43FF9E5082411
:1050C3000EFAE43509FB88828983124708E5082430
:1050D30010FAE43509FB850A82850B83E0FC88829C
:1050E3008983E0F88A828B83E0C398C39CF81253C8
:1050F30076F0EEFCEFFDAA0CAB0D121C86E9F50B66
:105103008E828F83E0640270061258CD1252FAE544
:105113000B60030252E7750C00750D009016A1E0B9
:1051230064016005E06402703F12530C6008EE24D2
:105133002112530F70328E828F83A3A3A3125CBA02
:10514300125342EE241612530812536BFAE439FB3E
:105153001239FAEA4B601112651C120B5B125350A1
:10516300AA0C1269BA120B3CEEFAEFFB121D4CE9C2
:10517300F50B9016A1E064016008E064026003028D
:1051830052DAE970030252DAE50C450D700302525C
:10519300E78003850E0B12530C600BEE2421125390
:1051A3000F60030252E0850B0E850C08850D09750F
:1051B3000A007808120B5B1253508E828F83A3A3CD
:1051C300A3A31276D3120B3CEE2420125308600DD6
:1051D3001253157468124720EE24208015EE242103
:1051E30012530860151253157403F0A37401F0EE03
:1051F3002421F582E43FF583E4F0EEFAEFFB121D80
:105203004CE9F50B70907C137D0079007409120B47
:10521300AD12132C741A120E337401125381646885
:105223007002A3E0704F8E828F83124E9CE0640560
:1052330060030251967C0879FF8E828F83A3A3A318
:10524300A3E0242A1259121213B6E97003025196ED
:105253007C087D0079FF7401120BAD12132C7401CD
:10526300120BB57A007B0079AB121C687419120E0D
:105273003374FC8015125315E064037004A3E064D7
:105283000170087419120E3374FFF0E4F508F50980
:105293007808120B5F7402120BB57413120E33AA43
:1052A30082AB83125DF7120B3C852182852283E05A
:1052B300602B7409120BA5880889097808120B5F03
:1052C3007508137509007808120B5F7C007D0012C6
:1052D300666A120B3C8006E50C450D6007AA0CAB11
:1052E3000D1213DAEEFAEFFB1213DA8003750B10CB
:1052F300A90B741C0272EAEE2406FAE43FFB1214B3
:10530300D622EE240C12538922EE242012538964F0
:105313000122EE124E4C3FF58322E508240EF5825E
:10532300E43509F583E02212532FA322E08E828F06
:105333008322A3E0F9121D8E22E05403640122129A
:10534300534622E0FAE82AF8E43400F9228E828FE9
:1053530083A3A3A3125CBE125346EE2416125389F1
:1053630012536BFCE439FD22FAE82AF8E439F9E830
:1053730024042212537A22126231A3A3A322F0122D
:10538300538622EE240FF582E43FF583E022790170
:10539300020AEC74F4120672EAFEEBFF8A82F583CA
:1053A300A3A3A3A3A3A3A3A31246AB2424F582E43C
:1053B30038F58312533C702E8A828B83124FCB7045
:1053C30025125464E06405701D125464A3E0F8745C
:1053D300016860057406687007124E7E74028005CA
:1053E300124E7E7403F0EA240A125D65125CCEE469
:1053F300F0EA2408F8E43F122D542431F582E43A0C
:10540300F583E0C0E0126A05A3A3D0E0125483CA77
:10541300242EF582E43AF583E0C0E0126A05A3A3E3
:10542300A3D0E01259A9C812545E38123BF7126A8E
:10543300051254788A0A8B0BAC0AAD0B850882855A
:10544300098312590F1214D68508828509831248DD
:10545300B3121D4C125D60F0022D6A240BF582E439
:10546300228A828B83A3A3A3A3A3A3A3A31261F77B
:10547300F583888222A3A3A3A312474A121EBA224A
:105483001258EBFAA3E022025391C082C083901416
:105493005E7492F0A3741CF0901460749EF0A37475
:1054A3001CF090146274A4F0A3741CF09014647440
:1054B30098F0A3741CF002579474F4120672EA2451
:1054C30008FEE43BFF8E82F583124E68125CA4E073
:1054D300F50874035508F50912590AF8A3E0888200
:1054E300F583E508F0A3A882A983E509600974029E
:1054F300650960030255A9740C5508FC600A740819
:105503006C600574046C7026740265097006E50806
:10551300A2E4401A8A828B83A3A3A3A3A3A3A3A376
:105523001256AF1263FD3D12564AA308A983740CA9
:105533006C701C1256AB24281256972428F582E46B
:105543003DF583A312602BF0E82402F8500109749F
:105553000265097006E508A2E4404B1256AB242A03
:10556300125697242AF582E43DF583A31256591265
:1055730056B512602B1256B5A3125651E82404F8FF
:10558300500109EC600F74086C600A740C6C6005C0
:1055930074046C7011125CDB2426F582E43C125611
:1055A3004AA3A882A9838A828B83A3A3A3A3A3A3C9
:1055B300A3A312567954037014E508A2E1400E1216
:1055C3005CDB1256443CF583E05480600812565F5E
:1055D30012564C8019901432E0C0E012565FD0E0AE
:1055E30012568C8882898312568C041258F0A3A811
:1055F30082A983E508A2E750458E828F83125679EC
:105603008882898312569212567E54036030125C4C
:10561300DB2434F582E43C126029F0E508A2E15072
:105623001D8A828B83A3A3A3A3A3A3A3A3122D5990
:105633002435F582E43A126029A3F0E82403022D0D
:105643006A241EF582E422F583125659F02212567B
:1056530059A3A3A3F022E088828983228A828B83C1
:10566300A3A3A3A3A3A3A3A3E0FCA3E0CC2432F5A9
:1056730082E43CF58322E012567E22FCA3E0CC2494
:1056830025F582E43CF583E022F0901432E0221207
:10569300622DE022F582E43DF5831256591256A499
:1056A300221262311256AF228E828F83E0FDA3E075
:1056B300CD22A31256A4242CF582E43DF58322C007
:1056C30082C0838A828B83125784FC74035CF98AB9
:1056D300828B83A3A37401F0E9600574026970618E
:1056E300740C5CF8600A74086860057404687013CD
:1056F3007402697005ECA2E440098A828B83A3A338
:105703007402F0740C68700A8A828B83A3A3E0246A
:1057130002F07402697005ECA2E440258A828B834F
:10572300A3A3E02404F0E8600F740868600A740C13
:1057330068600574046870098A828B83A3A3E004FC
:10574300F0ECA2E7502A8A828B83A3A3E0041257CA
:105753008A123263E0540360178A828B83A3A3E027
:1057630004F0ECA2E150098A828B83A3A3E004F046
:105773008A828B83A3A3E004F0801685218285228D
:1057830083124FB1A3E022F08A828B83E022120BB3
:105793003CD083D082020AECC082C0838A828B838E
:1057A300A3A3A3A3A3A3A3A3A3A3124EC560098A80
:1057B300828B83A3A31257BD80D7A3A3A3A3A3A3C1
:1057C300A3A31257C9221248BB1213DA221257D4C9
:1057D30022EE240CF582E43FF5832274F61206725E
:1057E30074F4120BD5125919FCA3E0F5838C82A330
:1057F300E0C0E07402120E33D0E01259C71259B060
:105803007404120E331269937402120E33E06404AB
:10581300701412592F24121259127406120E3312D5
:1058230058F6241A8035E064016005E06406703997
:10583300EA2402F8E43B122D541258D93AF583E0D6
:10584300C0E07403120E33D0E01258E72413125948
:10585300127406120E331258F6241B1259B0740830
:10586300120E33E8F0A3E9802B7406120E33E4F032
:10587300A312592A24121259127408120E33125900
:1058830003C8241AF582E438F583E0C0E0740A12F1
:105893000E33D0E0F07406120E33124EC5601F743F
:1058A30006120E331248B3121A10E96401700F1274
:1058B30058CD7406120E331258DF64017007AA2103
:1058C300AB22121D28740C023BEF121EBA8A088BFE
:1058D30009AC08AD09222412F582E4221248B7125A
:1058E30014D0E9221258EB221258F0E022F08882F9
:1058F3008983221258FA22EAF0A3EB1258F0E0222D
:105903001258FAF8A3E02212628BE022E02406FA8E
:10591300A3E03400FB228A828B83A3A3A3A3A3A3C4
:105923001269CEE8F0A3E9F012592F221259D8E0F8
:1059330022C082C08374FD120BD512595E12325DF0
:10594300C0E07402120E33D0E0125958121D2E74A7
:1059530003025791E4F0AA21AB22228A828B83A30C
:10596300A3A3A3A3A31247418A828B83A3A3E02209
:10597300C082C08374FA120BD51269C01259CDC00C
:10598300E07402120E33D0E01259A9F5838882A382
:10599300A3E0C0E07405120E33D0E0125958121D73
:1059A3003474060257911258EBF8A3E022F8A3E0EF
:1059B3003400F922A3A3125A2B22E02402F8A3E015
:1059C3003400F9221258EB24022212474A1259D802
:1059D3001259E4E022EA2402F8E43BF98882F583D1
:1059E30022E0FAA3E0F5838A82A322E50E123A5657
:1059F300350FF583E0FC7D0022C082C083125A1F5D
:105A0300600A24FC600B24F9600C800D121CC28018
:105A130008121CC88003121CCE0257948A828B83FF
:105A2300125A2924FB22A3A3125CD2E02274F61299
:105A3300067274E4120BD5EAFEEBFF7401120BB588
:105A43008A828B83A3A3A3A3A3A3125AEE7409127E
:105A53000BA5880889097808120B5F7402120BB52D
:105A63007403120BAD125DF7120B3C852182852264
:105A730083E06036741A120E33E060046401702A06
:105A8300901415E070248E828F83A3A3A3A3A3E0B5
:105A930070188E828F83125AE8603F8E828F83A3A1
:105AA300A3A3125AE4E0640760308E828F83A3A31A
:105AB300A3A3A3A3A3A3E070148E828F831259B769
:105AC300640560097A347B01121788800DEEFAEFC2
:105AD300FB901466125CCE1207FD741C023BEFEEC2
:105AE300F9125CD522125A296406221248B7121CF5
:105AF3006E2274F412067274FA120BD5EAFEEBFFEF
:105B03001232692408F582E43B125D00240AF5820F
:105B1300E438125D00125CAD125957121CB61257CD
:105B23007EF508125C98852182852283126A0BE038
:105B3300687003A3E069602EE508A2E5502885217B
